{
  "_format": "hh-sol-artifact-1",
  "contractName": "OrderBasedSwap",
  "sourceName": "contracts/Swap.sol",
  "abi": [
    {
      "inputs": [
        {
          "internalType": "address",
          "name": "",
          "type": "address"
        }
      ],
      "name": "balances",
      "outputs": [
        {
          "internalType": "uint256",
          "name": "",
          "type": "uint256"
        }
      ],
      "stateMutability": "view",
      "type": "function"
    },
    {
      "inputs": [
        {
          "internalType": "uint256",
          "name": "_amount",
          "type": "uint256"
        },
        {
          "internalType": "address",
          "name": "_makerToken",
          "type": "address"
        },
        {
          "internalType": "address",
          "name": "_takerToken",
          "type": "address"
        },
        {
          "internalType": "uint256",
          "name": "_takerAmt",
          "type": "uint256"
        }
      ],
      "name": "depositToken",
      "outputs": [],
      "stateMutability": "nonpayable",
      "type": "function"
    },
    {
      "inputs": [
        {
          "internalType": "uint256",
          "name": "",
          "type": "uint256"
        }
      ],
      "name": "order",
      "outputs": [
        {
          "internalType": "address",
          "name": "makerToken",
          "type": "address"
        },
        {
          "internalType": "address",
          "name": "takerToken",
          "type": "address"
        },
        {
          "internalType": "uint256",
          "name": "makerAmt",
          "type": "uint256"
        },
        {
          "internalType": "uint256",
          "name": "takerAmt",
          "type": "uint256"
        },
        {
          "internalType": "bool",
          "name": "userDeposited",
          "type": "bool"
        },
        {
          "internalType": "address",
          "name": "creator",
          "type": "address"
        }
      ],
      "stateMutability": "view",
      "type": "function"
    },
    {
      "inputs": [],
      "name": "orderId",
      "outputs": [
        {
          "internalType": "uint256",
          "name": "",
          "type": "uint256"
        }
      ],
      "stateMutability": "view",
      "type": "function"
    },
    {
      "inputs": [
        {
          "internalType": "uint256",
          "name": "_orderId",
          "type": "uint256"
        }
      ],
      "name": "swapOrder",
      "outputs": [],
      "stateMutability": "nonpayable",
      "type": "function"
    }
  ],
  "bytecode": "0x608060405234801561001057600080fd5b506112b7806100206000396000f3fe608060405234801561001057600080fd5b50600436106100575760003560e01c8063163de5e51461005c57806321603f431461007a57806327e235e3146100af57806355e54571146100df5780636fae2a9c146100fb575b600080fd5b610064610117565b6040516100719190610b2c565b60405180910390f35b610094600480360381019061008f9190610b78565b61011d565b6040516100a696959493929190610c01565b60405180910390f35b6100c960048036038101906100c49190610c8e565b6101c6565b6040516100d69190610b2c565b60405180910390f35b6100f960048036038101906100f49190610cbb565b6101de565b005b61011560048036038101906101109190610b78565b6106fa565b005b60005481565b60016020528060005260406000206000915090508060000160009054906101000a900473ffffffffffffffffffffffffffffffffffffffff16908060010160009054906101000a900473ffffffffffffffffffffffffffffffffffffffff16908060020154908060030154908060040160009054906101000a900460ff16908060040160019054906101000a900473ffffffffffffffffffffffffffffffffffffffff16905086565b60026020528060005260406000206000915090505481565b600073ffffffffffffffffffffffffffffffffffffffff163373ffffffffffffffffffffffffffffffffffffffff160361024d576040517f08c379a000000000000000000000000000000000000000000000000000000000815260040161024490610d7f565b60405180910390fd5b60008411610290576040517f08c379a000000000000000000000000000000000000000000000000000000000815260040161028790610e11565b60405180910390fd5b600060016000546102a19190610e60565b905060006001600083815260200190815260200160002090508060040160009054906101000a900460ff161561030c576040517f08c379a000000000000000000000000000000000000000000000000000000000815260040161030390610ee0565b60405180910390fd5b848160000160006101000a81548173ffffffffffffffffffffffffffffffffffffffff021916908373ffffffffffffffffffffffffffffffffffffffff160217905550838160010160006101000a81548173ffffffffffffffffffffffffffffffffffffffff021916908373ffffffffffffffffffffffffffffffffffffffff160217905550338160040160016101000a81548173ffffffffffffffffffffffffffffffffffffffff021916908373ffffffffffffffffffffffffffffffffffffffff16021790555082816003018190555060008160000160009054906101000a900473ffffffffffffffffffffffffffffffffffffffff1673ffffffffffffffffffffffffffffffffffffffff166370a08231336040518263ffffffff1660e01b815260040161043d9190610f00565b602060405180830381865afa15801561045a573d6000803e3d6000fd5b505050506040513d601f19601f8201168201806040525081019061047e9190610f30565b9050868110156104c3576040517f08c379a00000000000000000000000000000000000000000000000000000000081526004016104ba90610fa9565b60405180910390fd5b868260020160008282546104d79190610e60565b92505081905550868260000160009054906101000a900473ffffffffffffffffffffffffffffffffffffffff1673ffffffffffffffffffffffffffffffffffffffff1663dd62ed3e33306040518363ffffffff1660e01b815260040161053e929190610fc9565b602060405180830381865afa15801561055b573d6000803e3d6000fd5b505050506040513d601f19601f8201168201806040525081019061057f9190610f30565b10156105c0576040517f08c379a00000000000000000000000000000000000000000000000000000000081526004016105b79061103e565b60405180910390fd5b8160000160009054906101000a900473ffffffffffffffffffffffffffffffffffffffff1673ffffffffffffffffffffffffffffffffffffffff166323b872dd33308a6040518463ffffffff1660e01b81526004016106219392919061105e565b6020604051808303816000875af1158015610640573d6000803e3d6000fd5b505050506040513d601f19601f8201168201806040525081019061066491906110c1565b5060018260040160006101000a81548160ff02191690831515021790555086600260003373ffffffffffffffffffffffffffffffffffffffff1673ffffffffffffffffffffffffffffffffffffffff16815260200190815260200160002060008282546106d19190610e60565b9250508190555060016000808282546106ea9190610e60565b9250508190555050505050505050565b600073ffffffffffffffffffffffffffffffffffffffff163373ffffffffffffffffffffffffffffffffffffffff1603610769576040517f08c379a000000000000000000000000000000000000000000000000000000000815260040161076090610d7f565b60405180910390fd5b60006001600083815260200190815260200160002090508060040160009054906101000a900460ff166107d1576040517f08c379a00000000000000000000000000000000000000000000000000000000081526004016107c89061113a565b60405180910390fd5b80600301548160010160009054906101000a900473ffffffffffffffffffffffffffffffffffffffff1673ffffffffffffffffffffffffffffffffffffffff166370a08231336040518263ffffffff1660e01b81526004016108339190610f00565b602060405180830381865afa158015610850573d6000803e3d6000fd5b505050506040513d601f19601f820116820180604052508101906108749190610f30565b10156108b5576040517f08c379a00000000000000000000000000000000000000000000000000000000081526004016108ac906111a6565b60405180910390fd5b80600301548160010160009054906101000a900473ffffffffffffffffffffffffffffffffffffffff1673ffffffffffffffffffffffffffffffffffffffff1663dd62ed3e33306040518363ffffffff1660e01b8152600401610919929190610fc9565b602060405180830381865afa158015610936573d6000803e3d6000fd5b505050506040513d601f19601f8201168201806040525081019061095a9190610f30565b101561099b576040517f08c379a000000000000000000000000000000000000000000000000000000000815260040161099290611238565b60405180910390fd5b8060010160009054906101000a900473ffffffffffffffffffffffffffffffffffffffff1673ffffffffffffffffffffffffffffffffffffffff166323b872dd338360040160019054906101000a900473ffffffffffffffffffffffffffffffffffffffff1684600301546040518463ffffffff1660e01b8152600401610a249392919061105e565b6020604051808303816000875af1158015610a43573d6000803e3d6000fd5b505050506040513d601f19601f82011682018060405250810190610a6791906110c1565b508060000160009054906101000a900473ffffffffffffffffffffffffffffffffffffffff1673ffffffffffffffffffffffffffffffffffffffff1663a9059cbb3383600201546040518363ffffffff1660e01b8152600401610acb929190611258565b6020604051808303816000875af1158015610aea573d6000803e3d6000fd5b505050506040513d601f19601f82011682018060405250810190610b0e91906110c1565b505050565b6000819050919050565b610b2681610b13565b82525050565b6000602082019050610b416000830184610b1d565b92915050565b600080fd5b610b5581610b13565b8114610b6057600080fd5b50565b600081359050610b7281610b4c565b92915050565b600060208284031215610b8e57610b8d610b47565b5b6000610b9c84828501610b63565b91505092915050565b600073ffffffffffffffffffffffffffffffffffffffff82169050919050565b6000610bd082610ba5565b9050919050565b610be081610bc5565b82525050565b60008115159050919050565b610bfb81610be6565b82525050565b600060c082019050610c166000830189610bd7565b610c236020830188610bd7565b610c306040830187610b1d565b610c3d6060830186610b1d565b610c4a6080830185610bf2565b610c5760a0830184610bd7565b979650505050505050565b610c6b81610bc5565b8114610c7657600080fd5b50565b600081359050610c8881610c62565b92915050565b600060208284031215610ca457610ca3610b47565b5b6000610cb284828501610c79565b91505092915050565b60008060008060808587031215610cd557610cd4610b47565b5b6000610ce387828801610b63565b9450506020610cf487828801610c79565b9350506040610d0587828801610c79565b9250506060610d1687828801610b63565b91505092959194509250565b600082825260208201905092915050565b7f5a65726f20416464726573732064657465637465640000000000000000000000600082015250565b6000610d69601583610d22565b9150610d7482610d33565b602082019050919050565b60006020820190508181036000830152610d9881610d5c565b9050919050565b7f416d6f756e74206e6565647320746f206265206d6f7265207468616e207a657260008201527f6f00000000000000000000000000000000000000000000000000000000000000602082015250565b6000610dfb602183610d22565b9150610e0682610d9f565b604082019050919050565b60006020820190508181036000830152610e2a81610dee565b9050919050565b7f4e487b7100000000000000000000000000000000000000000000000000000000600052601160045260246000fd5b6000610e6b82610b13565b9150610e7683610b13565b9250828201905080821115610e8e57610e8d610e31565b5b92915050565b7f596f75206465706f736974656420416c72656164790000000000000000000000600082015250565b6000610eca601583610d22565b9150610ed582610e94565b602082019050919050565b60006020820190508181036000830152610ef981610ebd565b9050919050565b6000602082019050610f156000830184610bd7565b92915050565b600081519050610f2a81610b4c565b92915050565b600060208284031215610f4657610f45610b47565b5b6000610f5484828501610f1b565b91505092915050565b7f496e73756666696369656e7420546f6b656e2042616c616e6365000000000000600082015250565b6000610f93601a83610d22565b9150610f9e82610f5d565b602082019050919050565b60006020820190508181036000830152610fc281610f86565b9050919050565b6000604082019050610fde6000830185610bd7565b610feb6020830184610bd7565b9392505050565b7f546f6b656e20616c6c6f77616e636520746f6f206c6f77000000000000000000600082015250565b6000611028601783610d22565b915061103382610ff2565b602082019050919050565b600060208201905081810360008301526110578161101b565b9050919050565b60006060820190506110736000830186610bd7565b6110806020830185610bd7565b61108d6040830184610b1d565b949350505050565b61109e81610be6565b81146110a957600080fd5b50565b6000815190506110bb81611095565b92915050565b6000602082840312156110d7576110d6610b47565b5b60006110e5848285016110ac565b91505092915050565b7f796f752068617665206e6f20746f6b656e206465706f73697465640000000000600082015250565b6000611124601b83610d22565b915061112f826110ee565b602082019050919050565b6000602082019050818103600083015261115381611117565b9050919050565b7f496e73756666696369656e742074616b657220746f6b656e2062616c616e6365600082015250565b6000611190602083610d22565b915061119b8261115a565b602082019050919050565b600060208201905081810360008301526111bf81611183565b9050919050565b7f416c6c6f7720746f207472616e736665722073756666696369656e7420416d6f60008201527f756e740000000000000000000000000000000000000000000000000000000000602082015250565b6000611222602383610d22565b915061122d826111c6565b604082019050919050565b6000602082019050818103600083015261125181611215565b9050919050565b600060408201905061126d6000830185610bd7565b61127a6020830184610b1d565b939250505056fea2646970667358221220545190e81734bdaa4c234ecc80dae36b83d937b89fcc9cd09e0210291c239d9c64736f6c63430008180033",
  "linkReferences": {},
  "deployedLinkReferences": {}
}